:10000000A2C0B4C0B3C0B2C0B1C0B0C0AFC0AEC077
:10001000ADC0ACC0ABC0AAC0A9C0A8C0A7C0A6C094
:10002000A5C0A4C0A3C0A2C0A1C0A0C09FC09EC0C4
:100030009DC09CC00A0D20596F752063616E2073AE
:10004000706563696679207061636B6574732063A2
:100050006F6E74656E742062793A0A0D0A0D09207C
:100060005B203A7374617274207061636B65742CE9
:100070002069737375696E6720737461727420638D
:100080006F6E647574696F6E0A0D09205D203A7396
:10009000746F702074686520636F6D6D756E696331
:1000A0006174696F6E2C2069737375696E67207354
:1000B000746F7020636F6E647574696F6E0A0D09DA
:1000C0002072203A7265616420386269742076611A
:1000D0006C75652066726F6D20627573000A0D493C
:1000E0003243206D6F64650A0D000A0D43686F6F1F
:1000F0007365206F6E65206F662074686520666F7B
:100100006C6C6F77696E673A0A0D28312920493285
:10011000430A0D283229205350490A0D283329203B
:1001200031576972650A0D28532920536574746923
:100130006E6773000A0D0942757352696465722017
:1001400076302E31000011241FBECFEFD4E0DEBF89
:10015000CDBF11E0A0E0B1E0E6E2F5E002C005901D
:100160000D92A630B107D9F7B0D1DBC149CF0097C6
:1001700041F0E9EFF0E03197F1F700C0000001979E
:10018000F6CF08950F931F93CF93C82F8B01209A1A
:10019000CC2341F0289AC801EADF2898C801E7DF9C
:1001A000C150F6CFCF911F910F910895EC01209A85
:1001B000289ACE01DCDF2898CE01D9DFF9CF85E07F
:1001C0008093C4001092C50088E18093C10086E04E
:1001D0008093C20008958091C00087FFFCCF80917A
:1001E000C60008959091C00095FFFCCF8093C60093
:1001F0000895CF93DF93EC018991882311F0F2DF0A
:10020000FBCFDF91CF910895CF93DF93EC01FE01F7
:100210008491882319F0E6DF2196F9CFDF91CF9101
:100220000895AF92BF92DF92EF92FF920F931F93C8
:10023000CF93DF931F92CDB7DEB79C0111E0AA24C4
:10024000A394B12CF90131964AE0CF01B50142D116
:100250006A30710544F0C501489F5001499FB00CB8
:1002600011241F5FF2CF00E08AE0E82EF12C011785
:1002700089F0C901B5012ED1D82E80E3860F99836C
:10028000B1DF2D2D9981392FC501B70123D15B0134
:100290000F5FEDCF80E00F90DF91CF911F910F9115
:1002A000FF90EF90DF90BF90AF90089584B18C6283
:1002B00084B98CB580658CBD08958EBD0DB407FEE4
:1002C000FDCF8EB5089584B18A6084B9089587FF03
:1002D00002C0299A01C029982B9A00002B9886FF0A
:1002E00002C0299A01C029982B9A00002B9885FFFB
:1002F00002C0299A01C029982B9A00002B9884FFEC
:1003000002C0299A01C029982B9A00002B9883FFDC
:1003100002C0299A01C029982B9A00002B9882FFCD
:1003200002C0299A01C029982B9A00002B9881FFBE
:1003300002C0299A01C029982B9A00002B9880FFAF
:1003400002C0299A01C029982B9A00002B98089581
:10035000CF93C62F962F92959F70882311F0892FE7
:1003600002C0892F8160B3DF2B9A00002B982C9A52
:1003700000002C988C2F8F70AADF2B9A00002B98EE
:100380002C9A00002C98CF91089582E0A0DF2B9A40
:1003900000002B982C9A00002C9868E270E080E016
:1003A00090E0D6DF6EE070E080E090E0D1DF66E0C4
:1003B00070E080E090E0CCCFCF93DF93EC016991C7
:1003C000662319F081E0C4DFFACFDF91CF91089561
:1003D0001092B90082E08093B800089594EA909357
:1003E000BC009091BC0097FFFCCF9091B900987F22
:1003F000983021F0903111F081E008958093BB0096
:1004000084E88093BC008091BC0087FFFCCF809182
:10041000B900887F883111F0803471F780E0089549
:1004200024EA34E844E92093BC009091BC0097FF93
:10043000FCCF9091B900987F983011F0903199F7E6
:100440008093BB003093BC009091BC0097FFFCCF21
:100450009091B900987F903211F0983539F440931B
:10046000BC009091BC0094FDFCCFDDCF0895B6CFC9
:1004700084E98093BC008091BC0084FDFCCF08958A
:100480008093BB0084E88093BC008091BC0087FF10
:10049000FCCF9091B900987F81E0983209F480E018
:1004A000089584EC8093BC008091BC0087FFFCCF52
:1004B0008091BB00089584E88093BC008091BC00CB
:1004C00087FFFCCF8091BB00089579DE84E391E043
:1004D0009BDEFFCF97FB072E16F4009406D077FD26
:1004E00008D00BD007FC05D03EF4909581959F4F26
:1004F0000895709561957F4F0895AA1BBB1B51E12C
:1005000007C0AA1FBB1FA617B70710F0A61BB70B83
:10051000881F991F5A95A9F780959095BC01CD0128
:060520000895F894FFCFDE
:0605260048656C6C6F00DB
:00000001FF
